:400000000010002011000000510300005103000008B500F04DFA00F09DF90000F8B572B680220021D200444801F045F88022002442480021D20001F03EF8201C404AFF25E5
:40004000A75810323E1C111C4300AE433D4001334019D318420001328A18934206D0591E09781D7889190D700233F6E70434102CE4D1C022334B92041A6099220026324B18
:4000800080271A60314B324A1E60324B3F061E6099231B041360304A022117602F4A3C25136080222E4B92051A602E4A2E4B2F481A602F4A13780B4313700378AB43283D09
:4000C0002B430370162013782A4D034313708022294B40181A608022284BD2031A604022274B1A60C022274B52031A603122264B1960264B1A608022254BD20219602B6847
:4001000013432B6000F08CFE2A68224B13402B60214A224B1A602022214B1C60214B1A60214B224A1F60224B2E601A60214A224B1A60224B1E60F8BD00300F4000400F4059
:40014000D410000004000140100001400C00014000500F400803044004500F4010500F4018500F40100001002001054001700F4000700F4000010B400000044008000440EF
:400180000001044008010440000404400804044018040440FFFFFBFF0600008004010B40080202402002024008010B401000008000000240AF040080400002400C020B4003
:4001C00010B5064C2378002B07D1054B002B02D0044800E000BF0123237010BDF000002000000000D010000008B5084B002B03D00748084900E000BF07480368002B00D19B
:4002000008BD064B002BFBD09847F9E700000000D0100000F4000020D00000200000000010B562B600F0A4FC00280ED16524012000F0D6FD00F09CFC002806D1013CE4B2D4
:40024000002CF4D14022034B1A6000F083FC00F0D7FAFEE7C000002008B500F011FB00F045FB00F0ADFB08BD70B50D1C161C0024034BC9B21C8000F097FB3580201C70BD7F
:400280000C010020F0B50A26171C00245E4387B0039005912D4DB4421ADA00F019FB80B228802B88002B0DD002202C8800F098FD00F00EFB80B228802B88A4B2A342F3D800
:4002C000002306E00120013400F08AFDA4B2E1E70523002401933C802B88002B32D02E883B88B6B2F318059A9BB23B80934220D2A3199BB20293029B9C4209D0631C9BB276
:400300000493039B1C1900F0C9FA2070049CF2E772B62B889E1BB6B22E8062B6039B029A9B18013B1B78172B0AD0052000F058FD06E09E1B3E8000F0D9FA0523019301E0D6
:40034000029CC9E7019807B0F0BDC0460C010020FEE7000070B51049104B01394A1C15D000221E685C689D68A018AA4203D0B058A0500432F8E7021CDC68151AA54202D07D
:40038000002520C2F9E710330139E7E700F064FEFFF746FFFEE7C046010000005411000008B500239A000D49032B01D80C4989580C4801338150302BF4D1FFF72FFE002262
:4003C000094B1A60094B1A68002A00D11A6080220121D20513680B43136008BD510300000000000000000020C8000020C0000020004770B5051C0E1C141C002802D000200B
:4004000000F0E0FC0020002C05D0013CAB191B5DC018C0B2F7E770BD013808B509282AD8C901494200F004FE0507090B0D0F1614181B154B08E0154B12E0154B0DE0154BB1
:400440000EE0154B00E0154BC9180878C0B21AE0134B02E0134B00E0134BC9180FE0134BC9180A7848788B7800021B041843CB7810431B0606E0002000F0A4FC00210B7884
:4004800048780002184308BDC07F0000C17F0000C57F0000C97F0000D07F0000D17F0000D67F0000D27F0000D47F0000D87F00000C4B10B51A68102313400B4A00D11360A3
:4004C0001368802B0DD100240220211C1460FFF7A3FFA04205D0211C0220FFF79DFFFFF787FF10BD00030B40C0000020F8B5061C0320311CFFF790FF041C311C0420FFF7FF
:400500008BFF0134E401271800240320311CFFF783FF251C0130C001B84209D203785A1ED2B2FD2A00D801251C19E4B20130F3E70120311CFFF770FF6442E4B20623844254
:4005400003D16A4255416D422B40181CF8BD0000F0B5A34CA544FFF77FFE62B6002300930025962106AC03AE201C4900321CFF23FFF788FE0028F4D13188062900D889E0DE
:4005800022780423012A55D1E778A2783F021743E2195679B44616790196FE1D8E427ED89279172A46D1FB189BB2002B08D09CAA8C49D21852181278013B801880B2F3E74B
:4005C000634640421A02019B80B21A430823824230D166E0342B00D09CE0009B012B59D1032F57D151A80021802200F064FD8025172151AB581902ABED19FA1EC918ADB2FB
:4006000000F050FD832D47D1A079637900021843754B36021B6880191A6880B2D3099BB2520601D001339BB2984279D20123002500930933002101206370002302AA06326F
:400640002070081D1180A170E37080B29CAE654F3618F619367801389B1980B29BB20028F4D19CA8614E40185B4286199BB233705F4E1B0A861933705E4B0731C0181723BE
:4006800089B20370201C7F33FFF7EEFD69E7009B012B1BD00423CDE70123002500930323C8E763782679181C31380A2801D90523C0E700F0C7FCECFF1400FCFF8FFF3E00C4
:4006C000FCFF420053008FFF62008A00002FE1D1381CFFF70BFF43424341237172E0009B012BD7D1012FD5D1002ED3D13E4B1B681B68DA0BD2B2DB09DBB2002A01D08023AE
:400700005B0023711B0A6371FF23A37100230421E37190E7009B012BBCD1022FBAD967E751A900F041FA002880D10123051C009312E0009B012BADD112E7009B012BA9D13B
:400740002C33EE19FF339E42A9DC51AB581907A93A1C00F0A7FCB5B200236BE7002F99D104AB191C244A41CA41C107AA03CB03C20123082100933B1C5DE7009B012B89D1C2
:40078000032F87D1A37962791B021A43310251180192C90100208022FFF72BFE071C002E0ED1019BFF2B0BD1311C0520FFF734FE311C3F1A0620FFF72FFEFFB23F1AFFB24E
:4007C0007F4227710023012135E70020FFF78EFE002802D18022094B1A6000F0F5FA59E78CFDFFFFA7FDFFFFD4000020ACFDFFFFADFDFFFFAEFDFFFFF8100000C000002016
:4008000038B50020FFF772FE431E98410624134D40422B6804401A680020C03AC021FFF7E8FD6B681B78181AC0B2984203D12B681B68002B02D1002000F0C4FA084B196862
:400840001A1C402901D0002C03D000231360FFF77FFE80221A6000F0B7FA38BDD4000020C00000208021054A08B5136809060B4313600A2000F092FA08BDC04600000640CB
:4008800010B5054C2378002B03D100F0BBF801232370FFF7E7FF10BD10010020094B0A491A680B6800209A420AD00B685A1C403B581E83415B421A40044B985C0A60C0B22E
:4008C0007047C046B0010020280100206C010020044B1868044B1A681B68904200D24130C01A7047B001002028010020002030B580250B4A0B4B1468106019686D02294314
:4009000019601D68084929401960084B1968084B1960084B08491870084B1960146030BDC80F064004030640FFFFFEFF28010020B0010020AD010020ED0F0000C00F06402F
:40094000124A10B51368591C3F3B5C1EA3415B4219400F4B1C68A142FBD014681B689C4208D10C4B1C680F232340082B02D00A4B18600AE00224094BC0B21C60084B5854C3
:400980001160084A13682343136010BD24010020200100200802064040020640800F06402C010020880F064038B5041C4518AC4204D02078FFF7C4FF0134F8E738BD000070
:4009C000002310B580240A4A640211681360094B1868204318601C68074820401860074B1868074B186002239943116010BDC046880F064004020640FFFFFEFF2001002025
:400A00002401002010B51D4A00241D4B07201A6001221C4B1C491C601C4B1A601C4B0B601C4908601C4903300C601C490A601C4A13601C4B1C6000F0BBF90A20032100F0BC
:400A40008FF919490A2000F07FF90422174B1C60174B1C60174B1C60174B1C60174B1A60174B1C60174B1C60174B1C60174B1C70174B1C60174B1C6010BDC0460B0000025C
:400A8000000006404000064000030640480006400700008004030640100306404400064000020640040206404D0F0000880E0640C80E0640480F0640080F0640C80F0640DD
:400AC000880F0640B001002028010020AD0100202401002020010020842280210D4BD2041A601A6849020A431A600B490B4A0A6019681960C3210A4B890019600021094B6B
:400B00001960094B1C311960084B1A60084A094B1A60704700010540080105401027000024010540380105402801054014010540881300000C01054008B500F02BF8012124
:400B4000034A13680B43136000F028F808BDC0460000054010B5054C2378002B03D1FFF7BBFF01232370FFF7E7FF10BD18010020024B18680006C00F7047C046040004402C
:400B80000230800804D0C0460138FDD1C046C046C0467047EFF3108072B6704780F310887047C046C046C046F0B50024CDB008940994FF2800D9A5E0A14200D1A2E00AADBB
:400BC00003908022281C00F06DFA231C211C221C019498002858002802D01218014301930133202BF5D1002A05D1002900D08CE000910B1C01E00023009302937F23484FFB
:400C0000484C2AAE80222CA8291C2A972B9300F049FA2660444B454E336022680693120F059700230A2A02D022680F3313400893089F002F71D1FFF7ADFF3D4A3D4B11689B
:400C400009971960089B04900792002B13D13A4A03992A922A9A09040A432A922AAA2260364A32602268120F0A2A03D02D4B1A680F2313400893089F002F37D1009B002BEE
:400C800034D0281C391C802200F015FA019B029A0AA99B005A50059B2AAD2A937F232CA880226B6000F0FEF9069B2560336023681B0F0A2B03D01B4B1F680F231F40089735
:400CC000089B002B12D11E4A03992A922A9A080410431C4A2A90256032602268120F0A2A03D0104B1A680F2313400893099B002B04D1104A079912680A6009930498FFF7CA
:400D00004DFF0AE00423089307E0019B9B00E958EA5001230291009370E708984DB0F0BDB6D7000008000040040000800400004008010B401C010020B6D8000005000080F6
:400D4000B6D90000060000801F2800D901BE034B8000C318186819607047C0464000002038B5041C0D1E032D00D901BE1F2C00D901BEFFF70FFFA308074A9B009B1803226A
:400D8000144094400634A240A5401968914329431960FFF703FF38BD00E400E01F2318401E3B8340181C014B1860704700E100E01F2318401E3B8340181C014B1860704794
:400DC00080E100E001BE7047034A044913689BB20B4313607047C0460CED00E00400FA0510B5041C8022074B1202944205D91868FFF7C6FE044BE418F4E758686043FFF726
:400E0000BFFE10BDDC0000200080FFFF08B5034B1B7A5843FFF7B4FE08BDC046DC000020F0B5C31E87B002932D2B65D8344B1B78984204D8334B1D78334BEDB21EE0334BA9
:400E40001B78984204D8324B1D78324BEDB215E0314B1B78984204D8304B1D78304BEDB20CE0304B1B78984204D82F4B1D782F4BEDB203E02E4B1D782E4BEDB21C782E4E26
:400E8000029B0390F35CE4B20193FFF783FE019B04900596294F2F2B05D9039B2A2B02D919263E6008E03F233E681E40019BB34205D2224B019A1A600520FFF761FE1D4AD3
:400EC000039B944663441B781D4ADBB213601D4B05201D601C4B1C60FFF798FF019BB34206D9059B029A05209B5C3B60FFF748FE0498FFF753FE00E001BE07B0F0BDC046D4
:400F0000C0F1FF0FC1F1FF0FC2F1FF0FC3F1FF0FC4F1FF0FC5F1FF0FC6F1FF0FC7F1FF0FC8F1FF0FC9F1FF0FCAF1FF0FCBF1FF0FCCF1FF0FCDF1FF0F001100002CFF0B405D
:400F400028FF0B401CFF0B4020FF0B40274B10B51B68002B00D09847254B1B685B071DD5244B1B681B0716D0234B2448196803685A1C403B5C1EA3415B421A40204B1B6860
:400F80009A4203D120221F4B1A70E9E7CBB21E498B540260E4E704221C4B1A601C4B1B689B0721D51B4B1A680F231340082B18D0194B1A491A680B689A420DD00B685A1C1C
:400FC0003F3B581E83415B421A40154B15489B5CDBB203600A60E5E70221134A13688B4313600222114B1A6010BDC04614010020CC0F06400803064040030640B001002062
:4010000028010020AD0100206C010020C00F06408C0F06400802064024010020200100202C01002040020640880F0640800F064002B4714649084900095C49008E4402BC74
:401040007047C04603B47146490840004900095E49008E4403BC70470E4B70B500251E1C0D4CE41AA410A54204D0AB00F35898470135F8E700F05CF8084B00251E1C084C9C
:40108000E41AA410A54204D0AB00F35898470135F8E770BD3C1100003C1100003C11000044110000002310B5934203D0CC5CC4540133F9E710BD031C8218934202D01970D6
:4010C0000133FAE77047000000120000DA0000000000000001330F4003410F4004430F4002600F40E61062048E04D84018808C40C608E608020111019311C804111E0101FF
:40110000030405060708090A0B0C0E0F101112131415161718191B1C1D1E1F2021222325262728292A2B2E2F3031323334350000F8B5C046F8BC08BC9E467047E90100000F
:40114000A1030000F8B5C046F8BC08BC9E467047C101000068110000D000002020000000C80000000000000000000000C8100000CC1000000000E02EC05D000018000000FB
:4011800000366E010000000000000000000000000000000000000000000000000000000000000000000000000000000000000000000000000000000000000000000000008A
:4011C00000000000000000000000000000000000000000000000000000000000000000000000000000000000000000000000000000000000000000000000000000000000EF
:4012000000000000000000000000000000000000000000000000000000000000000000000000000000000000000000000000000000000000000000000000000000000000AE
:40124000000000000000000000000000000000000000000000000000000000000000000000000000000000000000000000000000000000000000000000000000000000006E
:40128000000000000000000000000000000000000000000000000000000000000000000000000000000000000000000000000000000000000000000000000000000000002E
:407FC000000000000000000000000000000000000000010001000000000000000000000000000000000000000000000000000000000000000000000000000000000000007F
:0200000490303A
:020000009D7CE5
:0200000490402A
:20000000FFFFFFFF00000000000000000000000000000000000000000000000000000000E4
:0200000490501A
:0C000000000204C81193110004CDAF0FE2
:0200000490600A
:0100000001FE
:00000001FF