:400000000010002011000000510300005103000008B500F04DFA00F09DF90000F8B572B680220021D200444801F045F88022002442480021D20001F03EF8201C404AFF25E5
:40004000A75810323E1C111C4300AE433D4001334019D318420001328A18934206D0591E09781D7889190D700233F6E70434102CE4D1C022334B92041A6099220026324B18
:4000800080271A60314B324A1E60324B3F061E6099231B041360304A022117602F4A3C25136080222E4B92051A602E4A2E4B2F481A602F4A13780B4313700378AB43283D09
:4000C0002B430370162013782A4D034313708022294B40181A608022284BD2031A604022274B1A60C022274B52031A603122264B1960264B1A608022254BD20219602B6847
:4001000013432B6000F08CFE2A68224B13402B60214A224B1A602022214B1C60214B1A60214B224A1F60224B2E601A60214A224B1A60224B1E60F8BD00300F4000400F4059
:40014000D410000004000140100001400C00014000500F400803044004500F4010500F4018500F40100001002001054001700F4000700F4000010B400000044008000440EF
:400180000001044008010440000404400804044018040440FFFFFBFF0600008004010B40080202402002024008010B401000008000000240AF040080400002400C020B4003
:4001C00010B5064C2378002B07D1054B002B02D0044800E000BF0123237010BDF000002000000000D010000008B5084B002B03D00748084900E000BF07480368002B00D19B
:4002000008BD064B002BFBD09847F9E700000000D0100000F4000020D00000200000000010B562B600F0A4FC00280ED16524012000F0D6FD00F09CFC002806D1013CE4B2D4
:40024000002CF4D14022034B1A6000F083FC00F0D7FAFEE7C000002008B500F011FB00F045FB00F0ADFB08BD70B50D1C161C0024034BC9B21C8000F097FB3580201C70BD7F
:400280000C010020F0B50A26171C00245E4387B0039005912D4DB4421ADA00F019FB80B228802B88002B0DD002202C8800F098FD00F00EFB80B228802B88A4B2A342F3D800
:4002C000002306E00120013400F08AFDA4B2E1E70523002401933C802B88002B32D02E883B88B6B2F318059A9BB23B80934220D2A3199BB20293029B9C4209D0631C9BB276
:400300000493039B1C1900F0C9FA2070049CF2E772B62B889E1BB6B22E8062B6039B029A9B18013B1B78172B0AD0052000F058FD06E09E1B3E8000F0D9FA0523019301E0D6
:40034000029CC9E7019807B0F0BDC0460C010020FEE7000070B51049104B01394A1C15D000221E685C689D68A018AA4203D0B058A0500432F8E7021CDC68151AA54202D07D
:40038000002520C2F9E710330139E7E700F064FEFFF746FFFEE7C046010000005411000008B500239A000D49032B01D80C4989580C4801338150302BF4D1FFF72FFE002262
:4003C000094B1A60094B1A68002A00D11A6080220121D20513680B43136008BD510300000000000000000020C8000020C0000020004770B5051C0E1C141C002802D000200B
:4004000000F0E0FC0020002C05D0013CAB191B5DC018C0B2F7E770BD013808B509282AD8C901494200F004FE0507090B0D0F1614181B154B08E0154B12E0154B0DE0154BB1
:400440000EE0154B00E0154BC9180878C0B21AE0134B02E0134B00E0134BC9180FE0134BC9180A7848788B7800021B041843CB7810431B0606E0002000F0A4FC00210B7884
:4004800048780002184308BDC07F0000C17F0000C57F0000C97F0000D07F0000D17F0000D67F0000D27F0000D47F0000D87F00000C4B10B51A68102313400B4A00D11360A3
:4004C0001368802B0DD100240220211C1460FFF7A3FFA04205D0211C0220FFF79DFFFFF787FF10BD00030B40C0000020F8B5061C0320311CFFF790FF041C311C0420FFF7FF
:400500008BFF0134E401271800240320311CFFF783FF251C0130C001B84209D203785A1ED2B2FD2A00D801251C19E4B20130F3E70120311CFFF770FF6442E4B20623844254
:4005400003D16A4255416D422B40181CF8BD0000F0B5A34CA544FFF77FFE62B6002300930025962106AC03AE201C4900321CFF23FFF788FE0028F4D13188062900D889E0DE
:4005800022780423012A55D1E778A2783F021743E2195679B44616790196FE1D8E427ED89279172A46D1FB189BB2002B08D09CAA8C49D21852181278013B801880B2F3E74B
:4005C000634640421A02019B80B21A430823824230D166E0342B00D09CE0009B012B59D1032F57D151A80021802200F064FD8025172151AB581902ABED19FA1EC918ADB2FB
:4006000000F050FD832D47D1A079637900021843754B36021B6880191A6880B2D3099BB2520601D001339BB2984279D20123002500930933002101206370002302AA06326F
:400640002070081D1180A170E37080B29CAE654F3618F619367801389B1980B29BB20028F4D19CA8614E40185B4286199BB233705F4E1B0A861933705E4B0731C0181723BE
:4006800089B20370201C7F33FFF7EEFD69E7009B012B1BD00423CDE70123002500930323C8E763782679181C31380A2801D90523C0E700F0C7FCECFF1400FCFF8FFF3E00C4
:4006C000FCFF420053008FFF62008A00002FE1D1381CFFF70BFF43424341237172E0009B012BD7D1012FD5D1002ED3D13E4B1B681B68DA0BD2B2DB09DBB2002A01D08023AE
:400700005B0023711B0A6371FF23A37100230421E37190E7009B012BBCD1022FBAD967E751A900F041FA002880D10123051C009312E0009B012BADD112E7009B012BA9D13B
:400740002C33EE19FF339E42A9DC51AB581907A93A1C00F0A7FCB5B200236BE7002F99D104AB191C244A41CA41C107AA03CB03C20123082100933B1C5DE7009B012B89D1C2
:40078000032F87D1A37962791B021A43310251180192C90100208022FFF72BFE071C002E0ED1019BFF2B0BD1311C0520FFF734FE311C3F1A0620FFF72FFEFFB23F1AFFB24E
:4007C0007F4227710023012135E70020FFF78EFE002802D18022094B1A6000F0F5FA59E78CFDFFFFA7FDFFFFD4000020ACFDFFFFADFDFFFFAEFDFFFFF8100000C000002016
:4008000038B50020FFF772FE431E98410624134D40422B6804401A680020C03AC021FFF7E8FD6B681B78181AC0B2984203D12B681B68002B02D1002000F0C4FA084B196862
:400840001A1C402901D0002C03D000231360FFF77FFE80221A6000F0B7FA38BDD4000020C00000208021054A08B5136809060B4313600A2000F092FA08BDC04600000640CB
:4008800010B5054C2378002B03D100F0BBF801232370FFF7E7FF10BD10010020094B0A491A680B6800209A420AD00B685A1C403B581E83415B421A40044B985C0A60C0B22E
:4008C0007047C046B0010020280100206C010020044B1868044B1A681B68904200D24130C01A7047B001002028010020002030B580250B4A0B4B1468106019686D02294314
:4009000019601D68084929401960084B1968084B1960084B08491870084B1960146030BDC80F064004030640FFFFFEFF28010020B0010020AD010020ED0F0000C00F06402F
:40094000124A10B51368591C3F3B5C1EA3415B4219400F4B1C68A142FBD014681B689C4208D10C4B1C680F232340082B02D00A4B18600AE00224094BC0B21C60084B5854C3
:400980001160084A13682343136010BD24010020200100200802064040020640800F06402C010020880F064038B5041C4518AC4204D02078FFF7C4FF0134F8E738BD000070
:4009C000002310B580240A4A640211681360094B1868204318601C68074820401860074B1868074B186002239943116010BDC046880F064004020640FFFFFEFF2001002025
:400A00002401002010B51D4A00241D4B07201A6001221C4B1C491C601C4B1A601C4B0B601C4908601C4903300C601C490A601C4A13601C4B1C6000F0BBF90A20032100F0BC
:400A40008FF919490A2000F07FF90422174B1C60174B1C60174B1C60174B1C60174B1A60174B1C60174B1C60174B1C60174B1C70174B1C60174B1C6010BDC0460B0000025C
:400A8000000006404000064000030640480006400700008004030640100306404400064000020640040206404D0F0000880E0640C80E0640480F0640080F0640C80F0640DD
:400AC000880F0640B001002028010020AD0100202401002020010020842280210D4BD2041A601A6849020A431A600B490B4A0A6019681960C3210A4B890019600021094B6B
:400B00001960094B1C311960084B1A60084A094B1A60704700010540080105401027000024010540380105402801054014010540881300000C01054008B500F02BF8012124
:400B4000034A13680B43136000F028F808BDC0460000054010B5054C2378002B03D1FFF7BBFF01232370FFF7E7FF10BD18010020024B18680006C00F7047C046040004402C
:400B80000230800804D0C0460138FDD1C046C046C0467047EFF3108072B6704780F310887047C046C046C046F0B50024CDB008940994FF2800D9A5E0A14200D1A2E00AADBB
:400BC00003908022281C00F06DFA231C211C221C019498002858002802D01218014301930133202BF5D1002A05D1002900D08CE000910B1C01E00023009302937F23484FFB
:400C0000484C2AAE80222CA8291C2A972B9300F049FA2660444B454E336022680693120F059700230A2A02D022680F3313400893089F002F71D1FFF7ADFF3D4A3D4B11689B
:400C400009971960089B04900792002B13D13A4A03992A922A9A09040A432A922AAA2260364A32602268120F0A2A03D02D4B1A680F2313400893089F002F37D1009B002BEE
:400C800034D0281C391C802200F015FA019B029A0AA99B005A50059B2AAD2A937F232CA880226B6000F0FEF9069B2560336023681B0F0A2B03D01B4B1F680F231F40089735
:400CC000089B002B12D11E4A03992A922A9A080410431C4A2A90256032602268120F0A2A03D0104B1A680F2313400893099B002B04D1104A079912680A6009930498FFF7CA
:400D00004DFF0AE00423089307E0019B9B00E958EA5001230291009370E708984DB0F0BDB6D7000008000040040000800400004008010B401C010020B6D8000005000080F6
:400D4000B6D90000060000801F2800D901BE034B8000C318186819607047C0464000002038B5041C0D1E032D00D901BE1F2C00D901BEFFF70FFFA308074A9B009B1803226A
:400D8000144094400634A240A5401968914329431960FFF703FF38BD00E400E01F2318401E3B8340181C014B1860704700E100E01F2318401E3B8340181C014B1860704794
:400DC00080E100E001BE7047034A044913689BB20B4313607047C0460CED00E00400FA0510B5041C8022074B1202944205D91868FFF7C6FE044BE418F4E758686043FFF726
:400E0000BFFE10BDDC0000200080FFFF08B5034B1B7A5843FFF7B4FE08BDC046DC000020F0B5C31E87B002932D2B65D8344B1B78984204D8334B1D78334BEDB21EE0334BA9
:400E40001B78984204D8324B1D78324BEDB215E0314B1B78984204D8304B1D78304BEDB20CE0304B1B78984204D82F4B1D782F4BEDB203E02E4B1D782E4BEDB21C782E4E26
:400E8000029B0390F35CE4B20193FFF783FE019B04900596294F2F2B05D9039B2A2B02D919263E6008E03F233E681E40019BB34205D2224B019A1A600520FFF761FE1D4AD3
:400EC000039B944663441B781D4ADBB213601D4B05201D601C4B1C60FFF798FF019BB34206D9059B029A05209B5C3B60FFF748FE0498FFF753FE00E001BE07B0F0BDC046D4
:400F0000C0F1FF0FC1F1FF0FC2F1FF0FC3F1FF0FC4F1FF0FC5F1FF0FC6F1FF0FC7F1FF0FC8F1FF0FC9F1FF0FCAF1FF0FCBF1FF0FCCF1FF0FCDF1FF0F001100002CFF0B405D
:400F400028FF0B401CFF0B4020FF0B40274B10B51B68002B00D09847254B1B685B071DD5244B1B681B0716D0234B2448196803685A1C403B5C1EA3415B421A40204B1B6860
:400F80009A4203D120221F4B1A70E9E7CBB21E498B540260E4E704221C4B1A601C4B1B689B0721D51B4B1A680F231340082B18D0194B1A491A680B689A420DD00B685A1C1C
:400FC0003F3B581E83415B421A40154B15489B5CDBB203600A60E5E70221134A13688B4313600222114B1A6010BDC04614010020CC0F06400803064040030640B001002062
:4010000028010020AD0100206C010020C00F06408C0F06400802064024010020200100202C01002040020640880F0640800F064002B4714649084900095C49008E4402BC74
:401040007047C04603B47146490840004900095E49008E4403BC70470E4B70B500251E1C0D4CE41AA410A54204D0AB00F35898470135F8E700F05CF8084B00251E1C084C9C
:40108000E41AA410A54204D0AB00F35898470135F8E770BD3C1100003C1100003C11000044110000002310B5934203D0CC5CC4540133F9E710BD031C8218934202D01970D6
:4010C0000133FAE77047000000120000DA0000000000000001330F4003410F4004430F4002600F40E61062048E04D84018808C40C608E608020111019311C804111E0101FF
:40110000030405060708090A0B0C0E0F101112131415161718191B1C1D1E1F2021222325262728292A2B2E2F3031323334350000F8B5C046F8BC08BC9E467047E90100000F
:40114000A1030000F8B5C046F8BC08BC9E467047C101000068110000D000002020000000C80000000000000000000000C8100000CC1000000000E02EC05D000018000000FB
:4011800000366E010000000000000000000000000000000000000000000000000000000000000000000000000000000000000000000000000000000000000000000000008A
:4011C00000000000000000000000000000000000000000000000000000000000000000000000000000000000000000000000000000000000000000000000000000000000EF
:4012000000100020111200000D1800000D18000008B5024B83F3088800F0FAFA0010002038B51D4C23688025ED022B432360302000F072FC194A1A4B1A603022194B1A6067
:401240002023194A13602121184A11601139184A1160184A1360184A136080231B06174A13602560164A1360164A174B1A60174A174B1A60174A184B1A60184A184B1A6093
:401280000920184900F0EEFB092000F0D5FB0022154B1A6038BDC04600010B400600008004010B40080202402002024024020240280202402C0202403002024008010B400D
:4012C0000000024001000080400002402200008080000240ED020080040002407F0200C044000240291D00000C020B4010B572B60122324B1A70002410E0314863001A19F0
:401300005200821891881B195B001A5AC31858880004104300F0E6FA0134E4B2012CECD92749081C0C30343100F0C2FA3322254B1A606632244B1A600023244A1360244AF3
:40134000136099231B04234A1360A4210904224A1160224A1360224A1360224A224B1A600122224B1A600132214B1A60214B1878022101431970204C21783C2081432838EB
:4013800001432170187816210143197003211B4B19601B491B4B1960C02149031A4B19609021C902194B1960194B1A603121194B1960194B1A60FFF733FF10BD1C700F405F
:4013C0007C26000000000140100001400C0001400803044000500F4008500F4010500F4020500F40B0000E00E00105402000004000800F4000700F4001700F400000044093
:401400003680040008000440080104400802044000040440080404401804044010B5064C2378002B07D1054B002B02D0044800E000BF0123237010BDF8000020000000008A
:401440007826000008B5084B002B03D00748084900E000BF07480368002B00D108BD064B002BFBD09847F9E70000000078260000FC000020D00000200000000010B502206F
:4014800000F0BEFA00F060FA84B200F039FA80B20E4B9C420BD90E4C0E490B88C31822889B180D4A94466344238008800CE00F2C0AD8074C07490B88C31822889B18074A4D
:4014C000944663442380088010BDC046EFFF0000500100204E0100200180FFFF0080FFFF10B500F0E5FC041C00F0EEFC0B4B1880630708D50A490B4A0B8814881B1B013B94
:401500000B80108008E0230706D50549054A0B8814881B1B0B80108010BDC0464A010020500100204801002000B587B0012000F07BFE01A814230370133B43700E4B1B88A8
:4015400043800E4B1B8883800D4B1B88C3800D4B1B8803810C4B1B8843810C4B1B8883810B4B1B88C3810B4B1B680593142100F0F3FE07B000BDC0464E010020480100201A
:40158000500100204C01002054010020520100204A0100204401002070B5012000F0C6FF00F0AEF9354C208000F08EFC344B1880344D2B88C31A344E32889B182488334929
:4015C0000A88121B9B189BB2338028800C80304A128818B211B2884202DC4A42904202DA012000F039FF284B1D882A4A13885B199BB213801BB2264A5288934202DD254BC3
:401600001A8004E051428B4201DA224B19802AB21F4C0423E15E51430E1C1E4B00215B5E0621605E4343F1181B480026835FD21A0826A35F5A438B18184A13600580A27A8C
:40164000002A04D0002B06DC07DB002408E0002B05DD022404E0032402E0012400E00024DA179B1853400A4A9089984200D9181C00F09EFC201C00F031FD70BD5201002019
:401680004A01002048010020500100204E010020D4000020540100204C0100204401002000B585B00E236A461370063B53700A4B9A8869464A80DA888A801A89CA801A88FE
:4016C0000A819A894A815B888B8168460E2100F043FE05B000BDC046D400002070B504AC0025655F05AC0026A65F074CA080E18022812380A8B2A081668000F051FC002096
:4017000000F0AAFE70BDC046D4000020F0B5A3B0394800F0D5FC022000F0B2FC374800F0ABFB002000F088FB354800F071FB012000F052FB334800F0FFFC032000F0DAFCC2
:40174000314B988900F02CFC00F090FD00F082FC00F046F900F00CFC00F0D8FE62B6642000F0B8F9002000F077FE002400F0A8FD0028FBD000F08AFD02AB18550134E4B212
:401780001B78A342F2D802AB5B78032B0CD002D8022B05D023E0042B19D0052B1BD01EE0FFF77EFF02201BE002AD0223E85E0423E95E0623EA5E0826AB5F0A27EE5F009678
:4017C0000C26AD5F0195FFF789FF0E2008E000F01BFD022004E000F0BDFC022000E00020241AE4B2002304E0191802AA515CD15401339C42F8DCB9E7991500007D14000059
:40180000E114000029150000D4000020FEE7C04670B50F4E0F4D13E029686B68AC68002202E001C901C30432A242FAD1E868002202E0002102C304328242FAD11035013E53
:40184000002EE9D100F0EAFEFFF760FFFEE7C04601000000F828000008B500230AE0032B03D89A000D49505800E00D4899000D4A885001332F2BF2D9FFF738FD00220A4BE4
:401880001A600A4B1B68002B01D1084B1A608022D205116801230B43136008BD001200000D18000000000020C8000020C0000020F0B50025002711E0BB00C658F3B2FF22D0
:4018C000964308E06A008A181478A419527822700135013BDBB2002BF4D10137092FEBD9F0BDC04608B50A1C002100F0BDFE08BD0004000C014B18607047C046C80105408D
:40190000024B18680004000C7047C046C801054010B5041C00F086F8054B1968054A0A401A601A6814431C6000F080F810BDC046C0010540FFFFFCFF0004000C014B186065
:401940007047C046D4010540024B18680004000C7047C046CC01054038B5041C0D1C00F061F8AC40024B1C6000F060F838BDC0460800054008B500F055F8064A1168082332
:401980000B43136000F052F808200821FFF7E4FF08BDC04600000540014B18607047C046F801054010B5C82292040B4B1A60C32292000A4B1A600220FFF7EEFF80204002F1
:4019C000FFF7A6FF80242402201CFFF7B5FF201CFFF78EFF10BDC046C0010540E401054008B5064B1B78002B04D1FFF7DBFF0122024B1A70FFF7BEFF08BDC04614010020BC
:401A0000014B18607047C046F0010540000000000230800804D0C0460138FDD1C046C046C0467047EFF3108072B6704780F310887047C046C046C0461F2318401E3B8340B0
:401A4000181C014B1860704700E100E01F2318401E3B8340181C014B1860704780E100E001BE704738B5041C0D1C1F2802D90020FFF7F6FFA400034B9C46644420682560EE
:401A800038BDC0464000002070B5041C0E1E032E02D90020FFF7E4FF1F2C02D90020FFF7DFFF03252540ED000635FFF7BBFFA408A400074B9C46644423680322AA4093433A
:401AC000AE40351C1D432560FFF7B0FF70BDC04600E400E010B5041C06E0084B1868FFF797FF074B9C46644480231B029C42F4D8024B58686043FFF78BFF10BDE4000020B5
:401B00000080FFFF08B5034B1B7A5843FFF780FF08BDC046E4000020F0B557464E46C0B483B0041CFFF77EFF0190E71E2D2F74D83F4B1B78DBB2A34208D33E4B1B78DBB247
:401B40009A463D4B1B78DBB2994631E03B4B1B78DBB2A34208D33A4B1B78DBB29A46394B1B78DBB2994623E0374B1B78DBB2A34208D3364B1B78DBB29A46354B1B78DBB2F9
:401B8000994615E0334B1B78DBB2A34208D3324B1B78DBB29A46314B1B78DBB2994607E02F4B1B78DBB29A462E4B1B78DBB299462D4BDE5D2F2E09D92A2C07D919222B4B49
:401BC0001A600520FFF724FF192503E0274B1D683F231D40AE4206D2234BDA5D234B1A600520FFF715FF1F4B9C4664442378DBB21F4A13601F4B52461A601F4B4A461A60EA
:401C00000520FFF77FFFAE420AD9174BDA5D174B1A600520FFF7FCFE02E00020FFF720FF0198FFF703FF03B00CBC91469A46F0BDC0F1FF0FC1F1FF0FC2F1FF0FC3F1FF0F25
:401C4000C4F1FF0FC5F1FF0FC6F1FF0FC7F1FF0FC8F1FF0FC9F1FF0FCAF1FF0FCBF1FF0FCCF1FF0FCDF1FF0FA42800002CFF0B4028FF0B401CFF0B4020FF0B40034B186847
:401C8000C0231B02184000D00120704700010B4008B5FFF7C7FE044A1368C02109020B431360FFF7C3FE08BD00010B4010B5FFF7B9FE08490A68084B1A408024E401224352
:401CC0000A600A6813408022120213430B60FFF7ADFE10BD00010B40FF3FFFFF70B5061CFFF7A0FE041CFFF7C9FF002803D0FFF7DDFF012500E000250848331C0340084A63
:401D0000106808490840184310601368012D01D1FFF7BEFF201CFFF789FE70BD0404040010020B40FBFBFBFF10B5244B1B685B0715D5234B1B685B070ED5224B996904208E
:401D400001401F4C22688A4322609A6982439A61DB68002B00D098470420FFF7BFFF174B1B685B0518D5164B1B685B0510D5154B99698022D2001140114802688A430260B2
:401D80009969114A0A409A611B69002B00D098478020C000FFF7A2FF084B1B685B030CD5074B1B685B0304D5064B5B69002B00D098478020C002FFF791FF10BD10020B400A
:401DC000F400002018010020FFFBFFFF014B18647047C0460000002010B5041CFFF722FE044A1368C0218B43A4011C431460FFF71DFE10BD00E400E00122014B1A607047CC
:401E000000E100E00122014B1A60704780E100E010B5041CFFF7F6FF201CFFF7D7FF0120FFF7DAFFFFF7E8FF10BDC0468C23014AD05070470000002010B5041CFFF7F2FDCD
:401E4000044A13689B009B08A4071C431460FFF7EDFD10BD10E400E080221203014B1A607047C04600E100E080221203014B1A607047C04680E100E010B5041CFFF7F4FF18
:401E8000201CFFF7D3FF0020FFF7D6FFFFF7E4FF10BDC046024A117880230B431370704772000F40014B18707047C04681000F40014B1878C0B2704761000F40014B1880CC
:401EC0007047C04600100F40024B1B78024B188880B2704700000F4080100F40014B188880B2704780100F40014B18807047C04640100F40014B18807047C04660100F408E
:401F000008B501E0FFF7EAFFFFF7D2FF4306F9D408BDC04610B5134B1A7807218A4302390A431A701A7802398A431A70FFF7E8FF80242402201CFFF7D7FF201CFFF7BEFFFE
:401F40000C20FFF7AFFFFFF7B3FF0748FFF7D2FFFFF768FD054A117810230B431370FFF765FD10BD72000F40FFFF000091000F4008B5064B1B78002B04D1FFF7CBFF012254
:401F8000024B1A70FFF786FF08BDC046340100200004000C014B18607047C046880105400004000C014B18607047C046940105400004000C014B18607047C0468C01054082
:401FC00038B5041C0D1CFFF72DFDAC40024B1C60FFF72CFD38BDC0460800054008B5FFF721FD064A116804230B431360FFF71EFD04201821FFF7E4FF08BDC0460000054096
:40200000014B18607047C046B801054010B50E4C8023DB042360236823600020FFF7B8FF236823600C22094B1A600120FFF7E8FF3122074B1A60C8204000FFF7B1FFC82045
:40204000FFF7B6FF10BDC04680010540A4010540A801054008B5064B1B78002B04D1FFF7D5FF0122024B1A70FFF7B8FF08BDC046350100208023014AD0507047000000202C
:4020800010B5041CFFF7CEFC044A1368C0218B43A4011C431460FFF7C9FC10BD10E400E080225202014B1A607047C04600E100E080225202014B1A607047C04680E100E03B
:4020C00010B5041CFFF7F4FF201CFFF7D3FF0220FFF7D6FFFFF7E4FF10BDC046014B18707047C04671000F408423014AD05070470000002010B5041CFFF794FC044A116809
:40210000044B0B40A4031C431460FFF78FFC10BD10E400E0FF3FFFFF80229202014B1A607047C04600E100E080229202014B1A607047C04680E100E010B5041CFFF7F4FFEB
:40214000201CFFF7D1FF0320FFF7D4FFFFF7E4FF10BDC04608B5FFF765FC044A136802218B431360FFF762FC08BDC046000005400004000C014B18607047C0464801054001
:402180000004000C014B18607047C0465401054038B5041C0D1CFFF745FCAC40024B1C60FFF744FC38BDC0460800054008B5FFF739FC064A116802230B431360FFF736FC95
:4021C00002201821FFF7E4FF08BDC04600000540014B18607047C0467801054008B580229204074B1A600C22064B1A600120FFF7EFFF0520FFF7C4FF0020FFF7B9FF08BD2C
:40220000400105406401054008B5064B1B78002B04D1FFF7E3FF0122024B1A70FFF7C6FF08BDC04636010020014B18607047C0467001054008B50A20FFF7FEFB08BDC04646
:4022400008B500F0FFF808BD08B500F091F808BD08B5054A1368802109060B431360FFF7E9FFFFF7EDFF08BD0000064008B5064B1B78002B04D1FFF7E7FF0122024B1A70C0
:40228000FFF7E6FF08BDC04638010020094B1A68094B1B689A420BD0074B1B680133412B00D10023054AD05CC0B2034A136000E000207047600100205C010020AC01002023
:4022C000074B1B68074A1268934203D3054A1068181A04E0034A10681B1A4133181C7047600100205C010020144B1A68144B1B689A4208D1134B1B680F221340082B02D07D
:40230000114B186019E00D4B1A680132402A00D100220B4B1B689A42FBD002230B490B60C0B20B49885405490A600A4A1268134203D1084A11680B431360704764010020E9
:40234000580100200802064040020640800F064068010020880F064070B5061C0D1C002403E0305DFFF7C0FF0134AC42F9D370BD10B51D4A1D4B1A6000241D4B1C600122C3
:402380001C4B1A601C4B1D490B6007201C4908601C490C601C490A601C4A13601C4B1C600330FFF753FB0A200321FFF76DFB0A201849FFF757FB184B1C60184B1C60184B9D
:4023C0001C60184B1C600422174B1A60174B1C60174B1C60174B1C60174B1C70174B1C60174B1C6010BDC0460B000002000006404000064048000640070000800003064032
:40240000040306401003064044000640000206400402064039250000880E0640C80E0640480F0640080F0640C80F0640880F0640600100205C010020A80100206401002042
:402440005801002003490B68F0229343603A13430B6070471000014004490A68BF231A4080017F3B1840104308607047000104400004000C014B18607047C04608010540B5
:402480000004000C014B18607047C0461401054038B5041C0D1CFFF7C5FAAC40024B1C60FFF7C4FA38BDC0460800054008B5FFF7B9FA064A116801230B431360FFF7B6FADB
:4024C00001201821FFF7E4FF08BDC04600000540014B18607047C0463801054008B580229204084B1A600C22074B1A600120FFF7EFFF96204001FFF7C3FF0020FFF7B8FF5D
:4025000008BDC046000105402401054008B5064B1B78002B04D1FFF7E1FF0122024B1A70FFF7C4FF08BDC04640010020014B18607047C0463001054008B5274B1B68002BF6
:4025400000D09847254B1B685B071DD5244B1B680133412B00D10023224A1268934205D1214B1B682022214B1A7006E01E4A1268D2B21F49CA541A4A13601E4B1B681B0770
:40258000E4D104221C4B1A601C4B1B689B0721D51B4B1A681B4B1B689A4213D0194B1B680133402B00D10023174AD25CD2B217490A60144A1360164B1B680F221340082B8A
:4025C000E6D104E0134A136802218B4313600222114B1A6008BDC0463C010020CC0F0640600100205C01002040030640A8010020AC01002008030640C00F06408C0F06405D
:402600006401002058010020680100204002064008020640880F0640800F06400E4B70B500251E1C0D4CE41AA410A54204D0AB00F35898470135F8E700F04CF9084B00254F
:402640001E1C084CE41AA410A54204D0AB00F35898470135F8E770BDE0280000E0280000E0280000E8280000031C8218934202D019700133FAE770470000000000300F40EC
:40268000000400400F40000401000F404A300F402B310F4034320F4030330F400C400F4009410F4005420F4004430F4002600F40816F4034410549FF4AFF4BFF4DA04F0185
:4026C00050185A045F016040628064406540668068406A806C406D206E808301840489088F029308950298019A069B069C019E08A101A708B001B108B202B302B404B50438
:40270000B608B701B802BE11BF45C034C105C523C6C4C75EC83FC9FFCAFFCBFFCDAFCE07CF01D018D40FD604D804D904DA04DB04DF01E040E280E440E540E680E840EA8004
:40274000EC40ED20EE8005040F0A1C401D061E081F40241025082602270A2F50361037093E903F024050450A49804D804F0A548056565D105E485F02661467406D406E10B0
:402780006F018202851087418808C020C2C0CAC0CCE0CEB0D0C3D218D6F0D8E001C003180538074008010A120B010C180E030F01100612111508179018071A081B041C1FB9
:4027C0001D301F88201021802204232027012B022D06301F3301350637F83E013F045287580459045B045F0188029302960197019A02A502A802B103B203B503B603D80472
:40280000D904DF0100100602070409280D800E8811201640181019881E402122222025902610272029082C882D802E083008310A366037043D403E166E8C6F047680860831
:40284000873091409210964097209A429E80A088A610AD80C0C2C2D6C412CAF2CC73CEF0E602EA0809400C02504056106E8080408640C260D460DA80E280E6404540480251
:4028800086109E10A002A140D020D210E2400B040F108B04C206E6041A028601AF10C60201011001030405060708090A0B0C0E0F101112131415161718191B1C1D1E1F20CB
:4028C00021222325262728292A2B2E2F3031323334350000F8B5C046F8BC08BC9E4670474514000059180000F8B5C046F8BC08BC9E4670471D14000008290000D000002026
:4029000028000000F8000000000000000F0000101E00010001000100A00F00000000C05D80BB000030000000006CDC020404040000000000000000000000000000000000AA
:402940000000000000000000000000000000000000000000000000000000000000000000000000000000000000000000000000000000000000000000000000000000000057
:402980000000000000000000000000000000000000000000000000000000000000000000000000000000000000000000000000000000000000000000000000000000000017
:4029C00000000000000000000000000000000000000000000000000000000000000000000000000000000000000000000000000000000000000000000000000000000000D7
:402A00000000000000000000000000000000000000000000000000000000000000000000000000000000000000000000000000000000000000000000000000000000000096
:407FC0002D11120000230000008017000000000000000100000000000000000000000000000000000000000000000000000000000000000000000000000000000000000076
:0200000490303A
:02000000715835
:0200000490402A
:20000000FFFFFFFF00000000000000000000000000000000000000000000000000000000E4
:0200000490501A
:0C000000000204C81193110004D582EB2B
:0200000490600A
:0100000001FE
:00000001FF